{
  "contractName": "CuizzineWebOrder",
  "abi": [
    {
      "anonymous": false,
      "inputs": [
        {
          "indexed": false,
          "name": "order_id",
          "type": "string"
        },
        {
          "indexed": false,
          "name": "restaurant_id",
          "type": "string"
        },
        {
          "indexed": false,
          "name": "customer_id",
          "type": "string"
        },
        {
          "indexed": false,
          "name": "totalETH",
          "type": "uint256"
        }
      ],
      "name": "ReceivedWebOrder",
      "type": "event"
    },
    {
      "constant": false,
      "inputs": [
        {
          "components": [
            {
              "name": "order_id",
              "type": "string"
            },
            {
              "name": "customer_id",
              "type": "string"
            },
            {
              "name": "restaurant_id",
              "type": "string"
            },
            {
              "name": "customerWalletAddress",
              "type": "address"
            },
            {
              "name": "restaurantWalletAddress",
              "type": "address"
            },
            {
              "name": "totalETH",
              "type": "uint256"
            }
          ],
          "name": "_myWebOrder",
          "type": "tuple"
        }
      ],
      "name": "createOrder",
      "outputs": [],
      "payable": false,
      "stateMutability": "nonpayable",
      "type": "function"
    }
  ],
  "bytecode": "0x608060405234801561001057600080fd5b50610432806100206000396000f3fe60806040526004361061003b576000357c0100000000000000000000000000000000000000000000000000000000900480633b866ae414610040575b600080fd5b34801561004c57600080fd5b506100676004803603610062919081019061021b565b610069565b005b7f8e9d82652daf0f07d1f402a42f0d42935be672b67230a1e244590253b95a3a5a8160000151826020015183604001518460a001516040516100ae94939291906102a1565b60405180910390a150565b60006100c58235610389565b905092915050565b600082601f83011215156100e057600080fd5b81356100f36100ee82610328565b6102fb565b9150808252602083016020830185838301111561010f57600080fd5b61011a8382846103a5565b50505092915050565b600060c0828403121561013557600080fd5b61013f60c06102fb565b9050600082013567ffffffffffffffff81111561015b57600080fd5b610167848285016100cd565b600083015250602082013567ffffffffffffffff81111561018757600080fd5b610193848285016100cd565b602083015250604082013567ffffffffffffffff8111156101b357600080fd5b6101bf848285016100cd565b60408301525060606101d3848285016100b9565b60608301525060806101e7848285016100b9565b60808301525060a06101fb84828501610207565b60a08301525092915050565b6000610213823561039b565b905092915050565b60006020828403121561022d57600080fd5b600082013567ffffffffffffffff81111561024757600080fd5b61025384828501610123565b91505092915050565b600061026782610354565b80845261027b8160208601602086016103b4565b610284816103e7565b602085010191505092915050565b61029b8161037f565b82525050565b600060808201905081810360008301526102bb818761025c565b905081810360208301526102cf818661025c565b905081810360408301526102e3818561025c565b90506102f26060830184610292565b95945050505050565b6000604051905081810181811067ffffffffffffffff8211171561031e57600080fd5b8060405250919050565b600067ffffffffffffffff82111561033f57600080fd5b601f19601f8301169050602081019050919050565b600081519050919050565b600073ffffffffffffffffffffffffffffffffffffffff82169050919050565b6000819050919050565b60006103948261035f565b9050919050565b6000819050919050565b82818337600083830152505050565b60005b838110156103d25780820151818401526020810190506103b7565b838111156103e1576000848401525b50505050565b6000601f19601f830116905091905056fea265627a7a72305820b2bd851883149217cf00c63ed2dee52f2d3408c1f3393b7fddc0641ef27758a66c6578706572696d656e74616cf50037",
  "source": "// SPDX-License-Identifier: MIT\npragma solidity >=0.4.21 <0.7.0;\npragma experimental ABIEncoderV2;\n\nimport \"../lib/safemath.sol\";\n\ncontract CuizzineWebOrder {\n    //constructor() public {}\n\n    event ReceivedWebOrder(\n        string order_id,\n        string restaurant_id,\n        string customer_id,\n        uint256 totalETH\n    );\n\n    struct WebOrder {\n        string order_id;\n        string customer_id;\n        string restaurant_id;\n        address customerWalletAddress;\n        address restaurantWalletAddress;\n        uint256 totalETH;\n    }\n\n    function createOrder(WebOrder memory _myWebOrder) public {\n        emit ReceivedWebOrder(\n            _myWebOrder.order_id,\n            _myWebOrder.customer_id,\n            _myWebOrder.restaurant_id,\n            _myWebOrder.totalETH\n        );\n    }\n}\n",
  "sourcePath": "/Users/seantaylor/Projects/hello-truffle/contracts/CuizzineWebOrder.sol",
  "compiler": {
    "name": "solc",
    "version": "0.5.1+commit.c8a2cb62.Emscripten.clang"
  },
  "schemaVersion": "3.2.0",
  "updatedAt": "2020-06-30T20:27:03.478Z",
  "networkType": "ethereum",
  "devdoc": {
    "methods": {}
  },
  "userdoc": {
    "methods": {}
  }
}