{
  "contractName": "CuizzineWebOrder",
  "abi": [
    {
      "anonymous": false,
      "inputs": [
        {
          "indexed": false,
          "name": "order_id",
          "type": "string"
        }
      ],
      "name": "ReceivedWebOrder",
      "type": "event"
    },
    {
      "constant": false,
      "inputs": [
        {
          "name": "order_id",
          "type": "string"
        }
      ],
      "name": "createOrder",
      "outputs": [],
      "payable": false,
      "stateMutability": "nonpayable",
      "type": "function"
    }
  ],
  "bytecode": "0x608060405234801561001057600080fd5b506101d3806100206000396000f3fe60806040526004361061003b576000357c01000000000000000000000000000000000000000000000000000000009004806303b7c76414610040575b600080fd5b34801561004c57600080fd5b506101066004803603602081101561006357600080fd5b810190808035906020019064010000000081111561008057600080fd5b82018360208201111561009257600080fd5b803590602001918460018302840111640100000000831117156100b457600080fd5b91908080601f016020809104026020016040519081016040528093929190818152602001838380828437600081840152601f19601f820116905080830192505050505050509192919290505050610108565b005b7fd36f1f497ec80cce77337b9666e985f3ea18f34fd34aaef490798315ccb0b473816040518080602001828103825283818151815260200191508051906020019080838360005b8381101561016a57808201518184015260208101905061014f565b50505050905090810190601f1680156101975780820380516001836020036101000a031916815260200191505b509250505060405180910390a15056fea165627a7a723058205257ce4168f35a2ac890f5621233b3e896fdaad0db9e2b6cf66d2c31938d14b20029",
  "source": "// SPDX-License-Identifier: MIT\npragma solidity >=0.4.21 <0.7.0;\n\nimport \"../lib/safemath.sol\";\n\ncontract CuizzineWebOrder {\n    //constructor() public {}\n\n    /*event ReceivedWebOrder(\n        string order_id,\n        string restaurant_id,\n        string customer_id,\n        uint256 totalETH\n    );*/\n\n    event ReceivedWebOrder(string order_id);\n\n    struct WebOrder {\n        string order_id;\n        string customer_id;\n        string restaurant_id;\n        address customerWalletAddress;\n        address restaurantWalletAddress;\n        uint256 totalETH;\n    }\n\n    function createOrder(string memory order_id) public {\n        emit ReceivedWebOrder(order_id);\n        //emit ReceivedWebOrder();\n    }\n}\n",
  "sourcePath": "/Users/seantaylor/Projects/hello-truffle/contracts/CuizzineWebOrder.sol",
  "compiler": {
    "name": "solc",
    "version": "0.5.1+commit.c8a2cb62.Emscripten.clang"
  },
  "schemaVersion": "3.2.0",
  "updatedAt": "2020-07-08T21:29:51.144Z",
  "networkType": "ethereum",
  "devdoc": {
    "methods": {}
  },
  "userdoc": {
    "methods": {}
  }
}