{
  "contractName": "CuizzineWebOrder",
  "abi": [
    {
      "anonymous": false,
      "inputs": [
        {
          "indexed": false,
          "name": "order_id",
          "type": "string"
        }
      ],
      "name": "ReceivedWebOrder",
      "type": "event"
    },
    {
      "constant": true,
      "inputs": [
        {
          "name": "order_id",
          "type": "uint256"
        }
      ],
      "name": "createOrder",
      "outputs": [
        {
          "name": "",
          "type": "uint256"
        }
      ],
      "payable": false,
      "stateMutability": "view",
      "type": "function"
    }
  ],
  "bytecode": "0x608060405234801561001057600080fd5b5061012a806100206000396000f3fe6080604052600436106039576000357c010000000000000000000000000000000000000000000000000000000090048063f8ad8cd714603e575b600080fd5b348015604957600080fd5b5060606004803603605c91908101906090565b6074565b604051606b919060c3565b60405180910390f35b6000819050919050565b60006088823560e6565b905092915050565b60006020828403121560a157600080fd5b600060ad84828501607e565b91505092915050565b60bd8160dc565b82525050565b600060208201905060d6600083018460b6565b92915050565b6000819050919050565b600081905091905056fea265627a7a723058208ace64813d249d219af4eeb273bce3795cd746b72e320634f01393090f5609026c6578706572696d656e74616cf50037",
  "source": "// SPDX-License-Identifier: MIT\npragma solidity >=0.4.21 <0.7.0;\npragma experimental ABIEncoderV2;\n\nimport \"../lib/safemath.sol\";\n\ncontract CuizzineWebOrder {\n    //constructor() public {}\n\n    /*event ReceivedWebOrder(\n        string order_id,\n        string restaurant_id,\n        string customer_id,\n        uint256 totalETH\n    );*/\n\n    event ReceivedWebOrder(string order_id);\n\n    struct WebOrder {\n        string order_id;\n        string customer_id;\n        string restaurant_id;\n        address customerWalletAddress;\n        address restaurantWalletAddress;\n        uint256 totalETH;\n    }\n\n    function createOrder(uint256 order_id)\n        public\n        view\n        returns (uint256)\n    /*string memory order_id,\n        string memory customer_id,\n        string memory restaurant_id,\n        uint256 totalETH*/\n    {\n        return order_id;\n        //emit ReceivedWebOrder(order_id, customer_id, restaurant_id, totalETH);\n        //emit ReceivedWebOrder();\n    }\n}\n",
  "sourcePath": "/Users/seantaylor/Projects/hello-truffle/contracts/CuizzineWebOrder.sol",
  "compiler": {
    "name": "solc",
    "version": "0.5.1+commit.c8a2cb62.Emscripten.clang"
  },
  "schemaVersion": "3.2.0",
  "updatedAt": "2020-07-02T00:00:40.077Z",
  "devdoc": {
    "methods": {}
  },
  "userdoc": {
    "methods": {}
  }
}